{
  "contractName": "Splitter",
  "abi": [
    {
      "constant": true,
      "inputs": [],
      "name": "Carol",
      "outputs": [
        {
          "name": "",
          "type": "address"
        }
      ],
      "payable": false,
      "stateMutability": "view",
      "type": "function"
    },
    {
      "constant": true,
      "inputs": [],
      "name": "Bob",
      "outputs": [
        {
          "name": "",
          "type": "address"
        }
      ],
      "payable": false,
      "stateMutability": "view",
      "type": "function"
    },
    {
      "constant": true,
      "inputs": [],
      "name": "Alice",
      "outputs": [
        {
          "name": "",
          "type": "address"
        }
      ],
      "payable": false,
      "stateMutability": "view",
      "type": "function"
    },
    {
      "constant": true,
      "inputs": [],
      "name": "balance",
      "outputs": [
        {
          "name": "",
          "type": "uint256"
        }
      ],
      "payable": false,
      "stateMutability": "view",
      "type": "function"
    },
    {
      "inputs": [],
      "payable": false,
      "stateMutability": "nonpayable",
      "type": "constructor"
    },
    {
      "constant": false,
      "inputs": [
        {
          "name": "BobAddress",
          "type": "address"
        }
      ],
      "name": "setAddressBob",
      "outputs": [],
      "payable": false,
      "stateMutability": "nonpayable",
      "type": "function"
    },
    {
      "constant": false,
      "inputs": [
        {
          "name": "CarolAddress",
          "type": "address"
        }
      ],
      "name": "setAddressCarol",
      "outputs": [],
      "payable": false,
      "stateMutability": "nonpayable",
      "type": "function"
    },
    {
      "constant": true,
      "inputs": [],
      "name": "getBalances",
      "outputs": [
        {
          "name": "",
          "type": "uint256"
        },
        {
          "name": "",
          "type": "uint256"
        },
        {
          "name": "",
          "type": "uint256"
        },
        {
          "name": "",
          "type": "uint256"
        }
      ],
      "payable": false,
      "stateMutability": "view",
      "type": "function"
    },
    {
      "constant": true,
      "inputs": [
        {
          "name": "x",
          "type": "address"
        }
      ],
      "name": "getBalance",
      "outputs": [
        {
          "name": "",
          "type": "uint256"
        }
      ],
      "payable": false,
      "stateMutability": "view",
      "type": "function"
    },
    {
      "constant": false,
      "inputs": [],
      "name": "sendEther",
      "outputs": [],
      "payable": true,
      "stateMutability": "payable",
      "type": "function"
    }
  ],
  "bytecode": "0x6060604052341561000f57600080fd5b336000806101000a81548173ffffffffffffffffffffffffffffffffffffffff021916908373ffffffffffffffffffffffffffffffffffffffff1602179055506107d68061005e6000396000f300606060405260043610610098576000357c0100000000000000000000000000000000000000000000000000000000900463ffffffff168062113e081461009d5780630e29df22146100db578063520a57f8146100e55780636d877f911461013a5780639877bdff1461018f578063b69ef8a8146101e4578063cfa51a8d1461020d578063d44d649914610246578063f8b2cb4f1461027f575b600080fd5b34156100a857600080fd5b6100b06102cc565b6040518085815260200184815260200183815260200182815260200194505050505060405180910390f35b6100e36103a5565b005b34156100f057600080fd5b6100f86105d4565b604051808273ffffffffffffffffffffffffffffffffffffffff1673ffffffffffffffffffffffffffffffffffffffff16815260200191505060405180910390f35b341561014557600080fd5b61014d6105fa565b604051808273ffffffffffffffffffffffffffffffffffffffff1673ffffffffffffffffffffffffffffffffffffffff16815260200191505060405180910390f35b341561019a57600080fd5b6101a2610620565b604051808273ffffffffffffffffffffffffffffffffffffffff1673ffffffffffffffffffffffffffffffffffffffff16815260200191505060405180910390f35b34156101ef57600080fd5b6101f7610645565b6040518082815260200191505060405180910390f35b341561021857600080fd5b610244600480803573ffffffffffffffffffffffffffffffffffffffff1690602001909190505061064b565b005b341561025157600080fd5b61027d600480803573ffffffffffffffffffffffffffffffffffffffff169060200190919050506106ea565b005b341561028a57600080fd5b6102b6600480803573ffffffffffffffffffffffffffffffffffffffff16906020019091905050610789565b6040518082815260200191505060405180910390f35b6000806000803073ffffffffffffffffffffffffffffffffffffffff16316000809054906101000a900473ffffffffffffffffffffffffffffffffffffffff1673ffffffffffffffffffffffffffffffffffffffff1631600160009054906101000a900473ffffffffffffffffffffffffffffffffffffffff1673ffffffffffffffffffffffffffffffffffffffff1631600260009054906101000a900473ffffffffffffffffffffffffffffffffffffffff1673ffffffffffffffffffffffffffffffffffffffff1631935093509350935090919293565b60008060009054906101000a900473ffffffffffffffffffffffffffffffffffffffff1673ffffffffffffffffffffffffffffffffffffffff163373ffffffffffffffffffffffffffffffffffffffff1614801561043c57506000600160009054906101000a900473ffffffffffffffffffffffffffffffffffffffff1673ffffffffffffffffffffffffffffffffffffffff1614155b801561048157506000600260009054906101000a900473ffffffffffffffffffffffffffffffffffffffff1673ffffffffffffffffffffffffffffffffffffffff1614155b151561048c57600080fd5b600060023073ffffffffffffffffffffffffffffffffffffffff16318115156104b157fe5b0614156104e35760023073ffffffffffffffffffffffffffffffffffffffff16318115156104db57fe5b04905061050d565b600260013073ffffffffffffffffffffffffffffffffffffffff16310381151561050957fe5b0490505b600160009054906101000a900473ffffffffffffffffffffffffffffffffffffffff1673ffffffffffffffffffffffffffffffffffffffff166108fc829081150290604051600060405180830381858888f19350505050151561056f57600080fd5b600260009054906101000a900473ffffffffffffffffffffffffffffffffffffffff1673ffffffffffffffffffffffffffffffffffffffff166108fc829081150290604051600060405180830381858888f1935050505015156105d157600080fd5b50565b600260009054906101000a900473ffffffffffffffffffffffffffffffffffffffff1681565b600160009054906101000a900473ffffffffffffffffffffffffffffffffffffffff1681565b6000809054906101000a900473ffffffffffffffffffffffffffffffffffffffff1681565b60045481565b6000809054906101000a900473ffffffffffffffffffffffffffffffffffffffff1673ffffffffffffffffffffffffffffffffffffffff163373ffffffffffffffffffffffffffffffffffffffff161415156106a657600080fd5b80600160006101000a81548173ffffffffffffffffffffffffffffffffffffffff021916908373ffffffffffffffffffffffffffffffffffffffff16021790555050565b6000809054906101000a900473ffffffffffffffffffffffffffffffffffffffff1673ffffffffffffffffffffffffffffffffffffffff163373ffffffffffffffffffffffffffffffffffffffff1614151561074557600080fd5b80600260006101000a81548173ffffffffffffffffffffffffffffffffffffffff021916908373ffffffffffffffffffffffffffffffffffffffff16021790555050565b60008173ffffffffffffffffffffffffffffffffffffffff163190509190505600a165627a7a72305820b795fa1c273eb24b26a6223cd5bc7c7d0e1c8cfcbdb2a66dd07d5788ec463ee80029",
  "source": "pragma solidity ^0.4.18;\n\ncontract Splitter {\n    address public Alice;\n    address public Bob;\n    address public Carol;\n    \n    mapping (address => uint) balances;\n    \n    uint256 public balance;\n    \n    function Splitter() public {\n        Alice = msg.sender;\n    }\n\n    function setAddressBob(address BobAddress) public {\n        require(msg.sender == Alice);\n         Bob = BobAddress;\n    }\n    \n    function setAddressCarol(address CarolAddress) public {\n         require(msg.sender == Alice);\n         Carol = CarolAddress;\n    }\n   \n    function getBalances() public view returns(uint, uint, uint, uint){\n        return (address(this).balance,Alice.balance, Bob.balance, Carol.balance);\n    } \n\n    function getBalance(address x) public view returns(uint){\n       return x.balance;\n    }\n   \n    function sendEther() public payable{\n        uint amountToSplit;\n        require(msg.sender == Alice && Bob != 0 && Carol!= 0);\n        if(address(this).balance %2 == 0){\n         amountToSplit = address(this).balance/2;\n        }\n        else{\n         amountToSplit = (address(this).balance - 1)/2;    \n        }\n        Bob.transfer(amountToSplit);\n        Carol.transfer(amountToSplit);  \n    }\n    \n}\n",
  "sourcePath": "/home/pritty/DAPPS/Splitter/contracts/Splitter.sol",
  "compiler": {
    "name": "solc",
    "version": "0.4.19+commit.c4cbbb05.Emscripten.clang"
  },
  "schemaVersion": "2.0.0",
  "updatedAt": "2018-06-02T05:43:56.883Z"
}