{
  "contractName": "Splitter",
  "abi": [
    {
      "constant": true,
      "inputs": [
        {
          "name": "",
          "type": "address"
        }
      ],
      "name": "balances",
      "outputs": [
        {
          "name": "",
          "type": "uint256"
        }
      ],
      "payable": false,
      "stateMutability": "view",
      "type": "function"
    },
    {
      "inputs": [],
      "payable": false,
      "stateMutability": "nonpayable",
      "type": "constructor"
    },
    {
      "payable": true,
      "stateMutability": "payable",
      "type": "fallback"
    },
    {
      "anonymous": false,
      "inputs": [
        {
          "indexed": false,
          "name": "withdrawer",
          "type": "address"
        },
        {
          "indexed": false,
          "name": "amount",
          "type": "uint256"
        }
      ],
      "name": "FundIsWithdrawn",
      "type": "event"
    },
    {
      "anonymous": false,
      "inputs": [
        {
          "indexed": false,
          "name": "sender",
          "type": "address"
        },
        {
          "indexed": false,
          "name": "receiver1",
          "type": "address"
        },
        {
          "indexed": false,
          "name": "receiver2",
          "type": "address"
        },
        {
          "indexed": false,
          "name": "amount",
          "type": "uint256"
        }
      ],
      "name": "DepositIsMade",
      "type": "event"
    },
    {
      "constant": false,
      "inputs": [
        {
          "name": "B",
          "type": "address"
        },
        {
          "name": "C",
          "type": "address"
        }
      ],
      "name": "sendFundsToSplit",
      "outputs": [],
      "payable": true,
      "stateMutability": "payable",
      "type": "function"
    },
    {
      "constant": false,
      "inputs": [],
      "name": "withdraw",
      "outputs": [],
      "payable": false,
      "stateMutability": "nonpayable",
      "type": "function"
    }
  ],
  "bytecode": "0x6060604052341561000f57600080fd5b33600160006101000a81548173ffffffffffffffffffffffffffffffffffffffff021916908373ffffffffffffffffffffffffffffffffffffffff16021790555061048b8061005f6000396000f300606060405260043610610057576000357c0100000000000000000000000000000000000000000000000000000000900463ffffffff16806327e235e3146100595780633ccfd60b146100a6578063efbaf4f8146100bb575b005b341561006457600080fd5b610090600480803573ffffffffffffffffffffffffffffffffffffffff16906020019091905050610108565b6040518082815260200191505060405180910390f35b34156100b157600080fd5b6100b9610120565b005b610106600480803573ffffffffffffffffffffffffffffffffffffffff1690602001909190803573ffffffffffffffffffffffffffffffffffffffff1690602001909190505061025f565b005b60006020528060005260406000206000915090505481565b60008060003373ffffffffffffffffffffffffffffffffffffffff1673ffffffffffffffffffffffffffffffffffffffff16815260200190815260200160002054905060008060003373ffffffffffffffffffffffffffffffffffffffff1673ffffffffffffffffffffffffffffffffffffffff16815260200190815260200160002081905550600081111561025c573373ffffffffffffffffffffffffffffffffffffffff166108fc829081150290604051600060405180830381858888f1935050505015156101f057600080fd5b7f573f8f285fd382c5bdcd0755959fb2454b4f17966f9a8d90baffa7a1cf0cd4783382604051808373ffffffffffffffffffffffffffffffffffffffff1673ffffffffffffffffffffffffffffffffffffffff1681526020018281526020019250505060405180910390a15b50565b6000807f66accf765cebb328a76d19bf0202546bdf90884be333a8245cbaac42b40ddc1933858534604051808573ffffffffffffffffffffffffffffffffffffffff1673ffffffffffffffffffffffffffffffffffffffff1681526020018473ffffffffffffffffffffffffffffffffffffffff1673ffffffffffffffffffffffffffffffffffffffff1681526020018373ffffffffffffffffffffffffffffffffffffffff1673ffffffffffffffffffffffffffffffffffffffff16815260200182815260200194505050505060405180910390a1600060023481151561034357fe5b06141561035e5760023481151561035657fe5b049150610375565b60026001340381151561036d57fe5b049150600190505b816000808673ffffffffffffffffffffffffffffffffffffffff1673ffffffffffffffffffffffffffffffffffffffff16815260200190815260200160002060008282540192505081905550816000808573ffffffffffffffffffffffffffffffffffffffff1673ffffffffffffffffffffffffffffffffffffffff16815260200190815260200160002060008282540192505081905550806000803373ffffffffffffffffffffffffffffffffffffffff1673ffffffffffffffffffffffffffffffffffffffff16815260200190815260200160002060008282540192505081905550505050505600a165627a7a72305820a32b6a48a0e7c65f3662044f378767140ff952d79f8282446625bd7baf5bf0e20029",
  "source": "pragma solidity ^0.4.18;\n\ncontract Splitter {\n    \n    mapping (address => uint) public balances;\n    \n    address owner;\n    \n    event  FundIsWithdrawn(address withdrawer, uint amount);\n    event  DepositIsMade(address sender, address receiver1, address receiver2, uint amount);\n    \n    function Splitter() public {\n       owner = msg.sender;\n    }\n    \n    function sendFundsToSplit(address B, address C) public payable{\n        uint amountToSplit;\n        uint oddBalance;\n        \n        DepositIsMade(msg.sender, B, C, msg.value);\n        \n        if(msg.value %2 == 0){\n         amountToSplit = msg.value/2;\n        }\n        else{\n         amountToSplit = (msg.value - 1)/2;  \n         oddBalance = 1;\n        }\n        \n       balances[B] += amountToSplit;\n       balances[C] += amountToSplit;  \n       balances[msg.sender] +=  oddBalance;  \n    }\n    \n    function withdraw() public {\n          uint amount = balances[msg.sender];\n          balances[msg.sender] = 0;\n          \n          if(amount > 0) {\n              msg.sender.transfer(amount);\n              FundIsWithdrawn(msg.sender, amount);\n          }\n          \n    }    \n    \n    function() public payable { }      \n  \n}\n        \n        \n    \n\n",
  "sourcePath": "/home/pritty/DAPPS/Splitter/contracts/Splitter.sol",
  "compiler": {
    "name": "solc",
    "version": "0.4.19+commit.c4cbbb05.Emscripten.clang"
  },
  "schemaVersion": "2.0.0",
  "updatedAt": "2018-06-04T11:07:16.124Z"
}